:020000040800F2
:100000000030002089950008895D0008955D000892
:100010009D5D0008A55D0008AD5D000800000000C2
:10002000000000000000000000000000B55D0008B6
:10003000C15D000800000000CD5D0008D95D00082A
:10004000D9950008D9950008D9950008D9950008D8
:10005000D9950008D9950008D9950008D9950008C8
:10006000D9950008D9950008D9950008D9950008B8
:10007000D9950008D9950008D9950008D9950008A8
:10008000D9950008D9950008D9950008D995000898
:10009000D9950008D9950008D9950008D995000888
:1000A000D9950008D9950008D9950008D995000878
:1000B000D9950008D995000800000000D9950008DE
:1000C000D99500080000000000000000D995000844
:1000D00000000000D9950008D9950008D9950008BE
:1000E000D9950008D9950008000000000000000024
:1000F0000000000000000000000000000000000000
:1001000000000000000000000000000000000000EF
:100110000000000000000000D9950008D9950008F3
:1001200000000000000000000000000000000000CF
:1001300000000000000000000000000000000000BF
:10014000D9950008D99500080000000000000000C3
:10015000000000000000000000000000000000009F
:10016000000000000000000000000000000000008F
:10017000000000000000000000000000000000007F
:0801800000000000D995000801
:10018800044B05481B1A062B02D9044B03B1184728
:10019800704700BFCF020020CC0200200000000002
:1001A80005490648091A891001EBD171491002D096
:1001B800034B03B118477047CC020020CC02002043
:1001C8000000000010B5064C237843B9FFF7D8FFAC
:1001D800044B13B10448AFF300800123237010BD12
:1001E800CC020020000000006096000808B5084B0B
:1001F8001BB108480849AFF300800848036813B9E1
:10020800BDE80840CCE7064B002BF9D09847F7E744
:100218000000000060960008D0020020CC020020F8
:100228000000000080B582B000AF786039607B685C
:100238003A68C3F85C217B68522283F860217B68A6
:100248000022C3F868217B6818468821002205F03F
:10025800C9F80837BD4680BD80B584B000AF786066
:1002680000237B8107F10A037868C0211A4605F04C
:1002780065F90346FB60FB68002B04D17B894EF6C9
:10028800AA62934202D04FF0FF3300E000231846E1
:100298001037BD4680BD00BF80B584B000AF786020
:1002A8000B46FB70FB787868194600F081F9034625
:1002B800FB60FB68002B02D04FF0FF3307E07B6840
:1002C800FA7883F860217868FFF7C6FF0346184676
:1002D8001037BD4680BD00BF80B584B000AF7860E0
:1002E800786800F07DF90346FB60FB68002B0CD1B1
:1002F8007B680122C3F86821786800F0D5FA0346C4
:10030800FB60FB68002B06D002E04FF0FF3303E0F0
:100318004FF0FF3300E0002318461037BD4680BD7C
:1003280080B586B000AFF860B9601346FB71002352
:100338007B61BB681A1DBB680833F86811461A460A
:1003480001F0F2FD03467B617B69002B00D082E05F
:10035800BA68BB680133F86811461A4601F05CF9BF
:1003680003467B617B69002B00D074E0FB79F86859
:10037800194600F0ADFC03467B617B69002B00D079
:1003880069E0F8680021012200F03EFF03467B6126
:100398007B69002B00D05EE0F8680121012200F0A3
:1003A80033FF03467B617B69002B00D053E0BB68B9
:1003B800DB68F86801211A4600F0D6FF03467B6126
:1003C8007B69002B00D046E0BB681B69F8680021F8
:1003D8001A4600F0C9FF03467B617B69002B00D0F9
:1003E80039E0BB685B69F868194600F0EDFC034624
:1003F8007B617B69002B00D02DE0BB681B7EF86811
:1004080000211A4600F008FD03467B617B69002B3A
:1004180000D020E0BB685B7EF86801211A4600F036
:10042800FBFC03467B617B69002B00D013E0BA68B4
:10043800BB680133F86811461A4601F0EDF8034627
:100448007B617B69002B00D005E0FB680122C3F8C3
:100458007C21002301E04FF0FF3318461837BD46D2
:1004680080BD00BF80B483B000AF786039603B685E
:100478001B7E002B24D17B68D3F87C31002B0AD05B
:100488007B680022C3F87C213B681B891A467B687D
:10049800C3F8782118E07B68D3F878310D4A1268E0
:1004A80002FB03F20B4B1B68C3F58073396809899B
:1004B80001FB03F313441A127B68C3F8782103E0A5
:1004C8007B680122C3F87C210C37BD465DF8047BAC
:1004D800704700BF0000002080B584B000AF78608E
:1004E8007B68D3F86831002B02D14FF0FF332EE040
:1004F8007A6807F10F031046194601F0C5F903465B
:10050800002B02D04FF0FF3321E0FB7B002B01D101
:1005180001231CE07A687B6803F5C8731046194606
:1005280001F0F2F90346002B02D04FF0FF330EE042
:100538007A687B6803F5C87310461946FFF792FF7F
:100548007B6818464FF0FF3101F08CFC00231846F9
:100558001037BD4680BD00BF80B485B000AF78605D
:1005680072B67B6893F8A831002B03D17B68D3F867
:10057800783100E00023FB6062B6FB681846143748
:10058800BD465DF8047B704780B584B000AF7860E5
:1005980039600023FB737868396801F0DBFC034697
:1005A800FB73FB7B5BB218461037BD4680BD00BFAE
:1005B80080B584B000AF78600B46FB700023FB73F6
:1005C800FB785B08DBB278688A211A4604F00AFFD8
:1005D8000346FB73FB7B5BB218461037BD4680BDF4
:1005E800B0B596B000AF7860002387F8573097F918
:1005F8005730002B07D178688821002204F0F2FEDA
:10060800034687F857307B68002283F8F0207B6820
:100618004FF47A72A3F852217B684FF4C872A3F89A
:1006280054217B689E4AC3F858217B689D4AC3F8C9
:10063800D4207B6800221A6207F1100378681946F3
:1006480000F0B6FA034687F8573097F95730002B71
:1006580012D100233B7400237B747B6803F11004E0
:1006680007F110050FCD0FC40FCD0FC40FCD0FC468
:1006780095E80F0084E80F007B686422A3F8342112
:100688007B684FF46172A3F836217B684FF4FA72E5
:10069800A3F838217B684FF42062A3F83C217B68DB
:1006A800012283F8502178688021012204F09AFE03
:1006B80003461A4697F85730134387F85730786837
:1006C800FF21012204F08EFE03461A4697F85730A0
:1006D800134387F8573078680021002204F082FE1F
:1006E80003461A4697F85730134387F8573007F1EF
:1006F8000F03786891211A4604F0F8FE03461A465B
:1007080097F85730134387F85730FA7B7B6883F89C
:100718003A2178680021012204F064FE03461A4653
:1007280097F85730134387F857307868FF2100222D
:1007380004F058FE03461A4697F85730134387F8D3
:10074800573078688021002204F04CFE03461A4690
:1007580097F85730134387F8573000233B6516E066
:1007680097F95730002B0ED13B6D9BB2786819462C
:10077800012200F049FD03461A4697F85730134303
:1007880087F8573000E005E03B6D01333B653B6D72
:10079800052BE5DD97F95730002B07D17868022142
:1007A800002200F031FD034687F8573097F957309B
:1007B800002B07D178680321002200F025FD0346AD
:1007C80087F8573097F95730002B07D178680421FC
:1007D800002200F019FD034687F8573097F9573083
:1007E800002B07D178680521002200F00DFD034693
:1007F80087F8573097F95730002B08D178680021CF
:100808004FF4901200F0B0FD034687F8573097F97F
:100818005730002B08D1786801214FF4804200F04E
:10082800A3FD034687F8573097F95730002B08D1B6
:10083800786802214FF40C1200F096FD034687F801
:10084800573097F95730002B07D1786803210022D9
:1008580000F08AFD034687F8573097F95730002B88
:100868000FD17B68FF2283F8302178680121FF22AD
:1008780004F0B8FD034687F857307B68012283F8F7
:10088800322197F95730002B03D17B68002283F877
:10089800152197F857305BB218465837BD46B0BD9A
:1008A800856B0100A4700900B0B59EB002AF7860F6
:1008B800002387F86F3007F11C03402218460021F7
:1008C80008F0B9FE00237B8300237B76002387F89A
:1008D800673000233B6600233B7600237B610023BF
:1008E80087F85F307868012102F0A2FA034687F89A
:1008F8006F307B6893F813313B667B6893F814314B
:1009080087F85F3097F85F30012B0DD897F85F3084
:10091800012B02D13B6E202B06D897F85F30002BB5
:100928000FD13B6E0C2B0CD907F1140207F11803F9
:10093800786811461A4601F011FD034687F86F30B2
:1009480009E097F85F307868396E1A4601F016FFAB
:10095800034687F86F30954BBB6697F96F30002BCD
:100968000FD17B6893F8503187F8673097F8673074
:10097800002B04D17B68D3F84C31BB6601E08B4B6C
:10098800BB6697F96F30002B06D17868B96E03F013
:1009980001FE034687F86F3097F96F30002B0AD1B4
:1009A80000230093786800210022042301F004F951
:1009B800034687F86F3097F96F30002B21D178689C
:1009C800FF21012204F00EFD034687F86F3007F17E
:1009D8001A03786884211A4604F0B0FD03461A46C3
:1009E80097F86F30134387F86F307868FF2100223B
:1009F80004F0F8FC03461A4697F86F30134387F85B
:100A08006F3097F96F30002B05D17B8B1B011A468D
:100A18007B68C3F8D42097F96F30002B08D107F111
:100A28001C037868194600F0C3F8034687F86F304E
:100A380097F96F30002B10D107F119037868194620
:100A480000F0A2F9034687F86F3097F96F30002B52
:100A580003D17A7E7B6883F8312197F96F30002BB8
:100A68000ED17B6803F1100407F11C050FCD0FC4EC
:100A78000FCD0FC40FCD0FC495E80F0084E80F0009
:100A880097F96F30002B11D107F11903786801210C
:100A98001A4604F02BFD034687F86F3097F96F303C
:100AA800002B03D17A7E7B6883F8302197F96F3069
:100AB800002B07D178680021002200F0DFF90346F7
:100AC80087F86F3097F96F30002B07D178680221CB
:100AD800002200F0D3F9034687F86F3097F96F309A
:100AE800002B03D17B68032283F8322197F96F30FA
:100AF800002B09D107F11303786800211A4600F08A
:100B0800A5F9034687F86F3097F96F30002B03D1AA
:100B1800FA7C7B6883F8E82097F96F30002B09D1BD
:100B280007F11303786801211A4600F08FF903468C
:100B380087F86F3097F96F30002B03D1FA7C7B6808
:100B480083F8E02097F96F30002B09D107F10C03E7
:100B5800786803211A4602F0EDFE034687F86F30E5
:100B680097F96F30002B03D1FA687B68C3F8E4204B
:100B780097F96F30002B09D107F10C03786804212D
:100B88001A4602F0D7FE034687F86F3097F96F30A0
:100B9800002B03D1FA687B68C3F8DC2097F86F3024
:100BA8005BB218467037BD46B0BD00BF04000020D8
:100BB80080B584B000AF786039600023FB733B6870
:100BC8007868194600F0CCF80346FB7397F90F30A4
:100BD800002B07D13B6808337868194600F096FA6D
:100BE8000346FB7397F90F30002B02D13B680022B4
:100BF8001A7397F90F30002B07D13B6810337868C8
:100C0800194600F0CDFA0346FB7397F90F30002B15
:100C180007D13B68143378681946FFF7B5FC0346DB
:100C2800FB7397F90F30002B34D10023BB602EE003
:100C380097F90F30002B15D1BB6899B2BB68083300
:100C48009B003A681344043378681A4600F0EEFBB8
:100C580003461A46FB7B1343FB7397F90F30002BAF
:100C680011D100E016E0BB6899B2BB6818333A6846
:100C7800134478681A4600F053FB03461A46FB7B78
:100C88001343FB7300E005E0BB680133BB60BB683E
:100C9800052BCDDD97F90F30002B07D13B683C338E
:100CA8007868194600F050FC0346FB7397F90F303B
:100CB800002B07D13B6804337868194600F098F890
:100CC8000346FB73FB7B5BB218461037BD4680BDFD
:100CD80080B485B000AF78600B46FB700023FB73CF
:100CE800FB78152B32D801A252F823F04D0D0008DD
:100CF8004D0D0008550D00084D0D0008550D000854
:100D0800550D0008550D0008550D0008550D000833
:100D1800550D0008550D0008550D0008550D000823
:100D2800550D0008550D0008550D0008550D000813
:100D3800550D0008550D0008550D00084D0D00080B
:100D48004D0D00087B68FA781A7401E0F823FB73EC
:100D5800FB7B5BB218461437BD465DF8047B7047D1
:100D680080B485B000AF786039600023FB737B687E
:100D78001A7C3B681A70FB7B5BB218461437BD4679
:100D88005DF8047B704700BF80B584B000AF786021
:100D980039600023FB73786809213A6804F0A6FBE0
:100DA8000346FB7397F90F30002B06D13B681B787D
:100DB80003F00103DAB23B681A70FB7B5BB218469A
:100DC8001037BD4680BD00BF80B584B000AF7860E5
:100DD80039600023FB737868396803F047FA0346E3
:100DE800FB73FB7B5BB218461037BD4680BD00BF66
:100DF80080B584B000AF786039600023FB737868F1
:100E0800396803F015FB0346FB73FB7B5BB218469E
:100E18001037BD4680BD00BF80B584B000AF786094
:100E28000B46FB701346BB700023FB73FA78BB7844
:100E3800786811461A4602F057FF0346FB73FB7B9E
:100E48005BB218461037BD4680BD00BF80B586B07E
:100E580000AFF8600B467A60FB720023FB75FB7AE3
:100E6800F86819467A6803F0C9F90346FB75FB7DF3
:100E78005BB218461837BD4680BD00BF80B586B046
:100E880000AF78600B46FB701346BB700023FB7500
:100E98000023FB730023BB7507F10F03786801215A
:100EA8001A4604F023FB0346FB75FB7BBB7597F9D9
:100EB8001730002B5BD1BB78012B2CD1FB78042B8E
:100EC80025D801A252F823F0E50E0008EF0E00081D
:100ED800F90E0008030F00080D0F0008BB7D43F052
:100EE8001003BB7516E0BB7D43F02803BB7511E00A
:100EF800BB7D43F00403BB750CE0BB7D43F04003AE
:100F0800BB7507E0BB7D63F07F03BB7502E0FC2384
:100F1800FB752CE02BE0FB78042B26D801A252F8B5
:100F280023F000BF410F00084B0F0008550F0008C1
:100F38005F0F0008690F0008BB7D23F01003BB7525
:100F480015E0BB7D23F02803BB7510E0BB7D23F0C3
:100F58000403BB750BE0BB7D23F04003BB7506E0C3
:100F6800BB7D03F07F03BB7501E0FC23FB75FB7BB6
:100F7800BA7D9A421ED097F91730002B07D1BB7D56
:100F8800786801211A4604F02DFA0346FB7597F993
:100F98001730002B03D17B68BA7D83F8302197F98D
:100FA8001730002B06D17B685B693B61786839692B
:100FB800FFF70AFFFB7D5BB218461837BD4680BDB8
:100FC80080B487B000AFF8607B600B46FB721346B5
:100FD800BB720023FB757B6800221A70FB7A042B16
:100FE80032D801A252F823F00510000815100008A5
:100FF800251000083510000845100008BB7A03F0DA
:1010080010031B11DAB27B681A701FE0BB7A03F079
:101018000803DB10DAB27B681A7017E0BB7A03F0BA
:1010280004039B10DAB27B681A700FE0BB7A03F0F6
:1010380040039B11DAB27B681A7007E0BB7ADB09C0
:10104800DAB27B681A7001E0FC23FB75FB7D5BB2AA
:1010580018461C37BD465DF8047B704780B584B0E0
:1010680000AF786039600023FB730023BB7307F17E
:101078000E03786801211A4604F038FA0346FB7318
:1010880097F90F30002B07D1BA7B3B6878680021AD
:10109800FFF796FF0346FB7397F90F30002B08D133
:1010A800BA7B3B68023378680121FFF789FF034662
:1010B800FB7397F90F30002B08D1BA7B3B680133DB
:1010C80078680221FFF77CFF0346FB7397F90F301E
:1010D800002B08D1BA7B3B68033378680321FFF7FC
:1010E8006FFF0346FB7397F90F30002B08D1BA7BCB
:1010F8003B68043378680421FFF762FF0346FB73FB
:10110800FB7B5BB218461037BD4680BD80B584B006
:1011180000AF786039600023FB7307F10C0378682F
:10112800F8211A4604F00AFA0346FB7397F90F30C0
:10113800002B08D107F10803786804211A4604F047
:1011480035FA0346FB7397F90F30002B0CD1BB8996
:10115800002B05D0BB68BA89B3FBF2F23B681A6072
:101168003B681A687B689A61FB7B5BB2184610374C
:10117800BD4680BD80B485B000AF7860396000237B
:10118800FB737B681B7FBB733B68BA7B1A70FB7B66
:101198005BB218461437BD465DF8047B704700BF44
:1011A80080B586B000AF786039600023FB7507F121
:1011B8000E03786820211A4604F0C0F90346FB752F
:1011C80097F91730002B18D1FB89002B09D17B68C0
:1011D8001B6A3B613B683A691A607B6800221A7790
:1011E8000BE0FB89DB003B613B683A691A607B686E
:1011F8003A691A627B6801221A77FB7D5BB218464E
:101208001837BD4680BD00BF80B586B000AF786096
:101218000B467B8013467B700023FB7500233B61E4
:101228000023FB730023BB737B88052B02D9FC23A7
:10123800FB755BE07B78002B06D100233B61002324
:10124800FB730123BB730AE07B887A680C339B002D
:1012580013445B683B610023BB730123FB737B88EA
:10126800052B41D801A252F823F000BF8D120008C7
:1012780097120008AD120008B7120008C112000842
:10128800D91200087B68FA7B83F828202EE03B6996
:101298005B0A9BB2786844211A4604F0C7F80346F3
:1012A800FB7523E07B68FA7B83F82A201EE07B68C5
:1012B800FA7B83F82B2019E0BB7B5B007B737B7B7D
:1012C80078686021FE2204F0DBF80346FB750DE028
:1012D800BB7B1B017B737B7B78686021EF2204F06A
:1012E800CFF80346FB7501E0FC23FB7597F917302F
:1012F800002B0FD17B78002B06D17B887A681344AA
:10130800002283F8282005E07B887A6813440122AC
:1013180083F82820FB7D5BB218461837BD4680BD90
:1013280080B487B000AFF8600B467A607B810023F9
:10133800FB757B89052B05D9FC23FB757B6800228F
:101348001A7008E07B89FA68134493F82830BB7553
:101358007B68BA7D1A70FB7D5BB218461C37BD46A8
:101368005DF8047B704700BF80B586B000AFF860B9
:101378000B467A607B810023FB757B89FA681344EE
:1013880093F82830BB75BB7D002B07D17B89FA68A1
:101398000C339B0013447A685A6040E07B89052B24
:1013A80030D801A252F823F0C9130008D11300085D
:1013B800E7130008EF130008F7130008F7130008F5
:1013C800FB687A685A631FE07B685B0A9BB2F8681F
:1013D80044211A4604F02AF80346FB7514E0FB681A
:1013E8007A68DA6310E0FB687A681A640CE07B6854
:1013F8005B0A9BB2F86864211A4604F017F80346A2
:10140800FB7501E0FC23FB7597F91730002B06D11B
:101418007B89FA680C339B0013447A685A60FB7D19
:101428005BB218461837BD4680BD00BF80B588B08E
:1014380000AFF8600B467A607B810023FB770023BE
:10144800BB777B89052B47D801A252F823F000BF50
:10145800711400087D140008A3140008AF140008D4
:10146800BB140008BB140008FB685B6BBB6100235E
:10147800BB7733E007F11603F86844211A4604F0F5
:101488005DF80346FB7797F91F30002B02D1FB8AE2
:101498005B02BB610123BB7720E0FB68DB6BBB61B0
:1014A8000023BB771AE0FB681B6CBB610023BB778A
:1014B80014E007F11603F86864211A4604F03EF8B0
:1014C8000346FB7797F91F30002B02D1FB8A5B029A
:1014D800BB610023BB7701E0FC23FB7797F91F3042
:1014E800002B2AD1BB7F012B24D1BB69002B10D143
:1014F8007B89FA680C339B0013445B68BB617B688B
:10150800BA691A607B89FA681344002283F8282094
:1015180013E07B68BA691A607B89FA680C339B0010
:101528001344BA695A607B89FA681344012283F824
:10153800282002E07B68BA691A60FB7F5BB2184614
:101548002037BD4680BD00BF80B584B000AF78604D
:1015580039600023FB7307F10E03786801211A46EE
:1015680003F0C4FF0346FB7397F90F30002B0FD12C
:10157800BA7B7B6883F83021BB7BDBB25BB2002B84
:1015880003DA3B6801221A7002E03B6800221A70F5
:1015980097F90F30002B04D13B681A787B6883F8E1
:1015A8004C20FB7B5BB218461037BD4680BD00BFA0
:1015B80080B584B000AF78600023FB7307F10E0399
:1015C80078681946FFF7CCFB0346FB7397F90F3091
:1015D800002B07D1BB7B002B04D1786800F098F86A
:1015E8000346FB7397F90F30002B04D1786801F09C
:1015F8004FFB0346FB7397F90F30002B06D1BB7BDB
:10160800002B03D17B68032283F83221FB7B5BB27A
:1016180018461037BD4680BD80B586B000AFF8606B
:10162800B9607A600023FB75F868B9687A680123A5
:1016380001F0EEFA0346FB75FB7D5BB218461837DE
:10164800BD4680BD80B586B000AF78600B46FB70A4
:101658000023FB757B6893F8DA30BB75BB7D012BE3
:1016680005D0BB7D022B02D0BB7D032B47D107F1F0
:10167800100207F10C037868012100F0BFFB034654
:10168800FB753B69B3F57F0F03D8FB68B3F57F0F94
:1016980035D997F91730002B31D1FB78002B06D0BC
:1016A80078681A4902F076FF0346FB7527E07868E8
:1016B800FF21042203F096FE03461A46FB7D1343DE
:1016C800FB7578687021002203F08CFE03461A46E9
:1016D800FB7D1343FB757868FF21002203F082FE2F
:1016E80003461A46FB7D1343FB7578688021002268
:1016F80003F078FE03461A46FB7D1343FB75FB7D1A
:101708005BB218461837BD4680BD00BFF800002000
:1017180080B586B000AF78600023FB750123FB73AA
:1017280007F10E0378681946FFF71AFB78688021DD
:10173800012203F057FE0346FB757868FF2101225A
:1017480003F050FE0346FB7578680021002203F081
:1017580049FE0346FB757B6893F83A317868912116
:101768001A4603F03FFE0346FB7578680021012204
:1017780003F038FE0346FB757868FF21002203F06A
:1017880031FE0346FB7578688021002203F02AFEAB
:101798000346FB75BB7B012B38D0032B51D0002BA4
:1017A8006AD178680021012203F01CFE0346FB750C
:1017B800FB7B7B7397F91730002B26D100233B6105
:1017C8003B69002B08D007F10D03786800211A4601
:1017D80003F08CFE0346FB753B6901333B617A7B62
:1017E800FB7B1340DBB2FA7B9A4207D197F917309B
:1017F800002B03D13B69B3F5FA6FE1D33B69B3F52D
:10180800FA6F02D3F923FB7538E037E097F9173000
:10181800002B05D178680121FFF714FF0346FB75FB
:1018280078680021022203F0DDFD0346FB7597F975
:101838001730002B04D17B68042283F832211DE085
:101848001CE097F91730002B05D178680121FFF7C4
:10185800F9FE0346FB7578680021042203F0C2FDF7
:101868000346FB7597F91730002B04D17B680422D7
:1018780083F8322102E001E0F823FB75FB7D5BB2BF
:1018880018461837BD4680BD80B584B000AF786073
:1018980039600023FB737B6893F8DA30BB73BB7B3A
:1018A800042B12D107F108037868194600F01AFBD7
:1018B8000346FB73BB68042B03D13B6801221A70F3
:1018C8001CE03B6800221A7018E007F10D037868E5
:1018D80014211A4603F00AFE0346FB7397F90F30EA
:1018E800002B0BD17B7B03F00103002B03D03B685B
:1018F80001221A7002E03B6800221A70FB7B5BB27F
:1019080018461037BD4680BDB0B596B002AF7860B6
:101918003960002387F84F3007F1280378681421CD
:101928001A460C2303F034FD034687F84F3097F925
:101938004F30002B40F0D3803B6800229A753B68FB
:1019480000221A6097F832309BB21B029AB297F8BD
:1019580033309BB21344A7F84C303B6800225A60DE
:1019680097F82E309BB21B029AB297F82F309BB291
:1019780013449BB25B027B643B687A6CDA6097F82D
:1019880030309BB21B029AB297F831309BB21344A5
:10199800A7F84230B7F842305B021A463B681A6132
:1019A80097F82A309BB21B029AB297F82B309BB259
:1019B8001344A7F840303B68B7F840209A8297F85C
:1019C800283087F83F307B68B3F85231BB877B6893
:1019D80093F8313187F83B30BB8FB3F57A7F47D026
:1019E800BB8FB7F84C2002FB03F303F5FA73594A8F
:1019F80082FB03129211DB17D31AA7F84C307B68CD
:101A08001B6A3B877B681B7F87F8373097F837302E
:101A1800002B2DD03B8FB7F8402002FB03F31B129D
:101A28001A467B6C9A420DD197F83B30002B04D0B4
:101A380042F2B823A7F84A3016E048F6E023A7F8A0
:101A48004A3011E0B7F84C307A6C02FB03F23B8F56
:101A5800B7F8401001FB03F31B1219467B6C5B1AA5
:101A6800B2FBF3F3A7F84A30B7F84A30A7F84C307E
:101A780097F83B30002B0DD0B7F84C309B089AB242
:101A88003B681A81B7F84C30DBB29B01DAB23B688D
:101A9800DA7506E03B68B7F84C201A813B680022EB
:101AA800DA7597F83F20B7F840403B68009307F194
:101AB80036030193786811467A6C234603F018FAC6
:101AC80003461A4697F84F30134387F84F3097F973
:101AD8004F30002B03D197F836203B681A7697F9D8
:101AE8004F30002B2FD17B6807F10C0403F1500510
:101AF8000FCD0FC495E8070084E807003B681B89F1
:101B0800BB823B68DB7D87F823303B685B89FB82BF
:101B18003B685B683B613B68DB68BB613B681B6992
:101B2800FB613B689B8A3B843B681B7E87F82430BB
:101B38007B6803F1500407F10C050FCD0FC495E83D
:101B4800070084E8070097F84F305BB21846503713
:101B5800BD46B0BDD34D621080B584B000AF78608B
:101B680039600023FB7378680021FFF7B1F803465A
:101B7800FB7397F90F30002B04D17868FFF718FD35
:101B88000346FB7397F90F30002B05D17868396845
:101B9800FFF7BAFE0346FB7397F90F30002B05D108
:101BA8007868002100F05EF90346FB73FB7B5BB2AB
:101BB80018461037BD4680BD80B584B000AF786048
:101BC800084611461A460346FB700B46BB7013467F
:101BD8007B700023FB73FB78002B02D0F623FB738A
:101BE80005E1BB78142B10D13B7E002B02D11023CA
:101BF800BB7301E00123BB73BB7B786884211A4661
:101C080003F0F0FB0346FB73F1E0BB78152B40F0C3
:101C180097807868FF21012203F0E4FB03461A4607
:101C2800FB7B1343FB7378680021002203F0DAFB87
:101C380003461A46FB7B1343FB737868FF21002297
:101C480003F0D0FB03461A46FB7B1343FB7378680B
:101C58008021012203F0C6FB03461A46FB7B13438F
:101C6800FB7378688521022203F0BCFB03461A4601
:101C7800FB7B1343FB737868FF21042203F0B2FB5C
:101C880003461A46FB7B1343FB737868CD21002279
:101C980003F0A8FB03461A46FB7B1343FB737868E3
:101CA800CC21112203F09EFB03461A46FB7B13430B
:101CB800FB737868FF21072203F094FB03461A465A
:101CC800FB7B1343FB737868BE21002203F08AFB79
:101CD80003461A46FB7B1343FB737868FF210622F1
:101CE80003F080FB03461A46FB7B1343FB737868BB
:101CF800CC21092203F076FB03461A46FB7B1343EB
:101D0800FB737868FF21002203F06CFB03461A4638
:101D1800FB7B1343FB737868FF21012203F062FB0E
:101D280003461A46FB7B1343FB73786800210022A5
:101D380003F058FB03461A46FB7B1343FB7356E03C
:101D480097F90F30002B20D17B78042B1BD801A2E8
:101D580052F823F0711D0008771D00087D1D00084A
:101D6800831D0008891D00080023BB730DE00123B3
:101D7800BB730AE00223BB7307E00323BB7304E0D1
:101D88000423BB7301E0F523FB7397F90F30002B95
:101D980007D1BB7B78680A211A4603F023FB034668
:101DA800FB7397F90F30002B0FD13B7E002B02D12C
:101DB8000023BB7301E01023BB73BB7B78688421CD
:101DC800EF2203F05DFB0346FB7397F90F30002BFE
:101DD80003D17B687A7883F8DA2097F90F30002BE3
:101DE80005D17868002100F03DF80346FB73FB7BC2
:101DF8005BB218461037BD4680BD00BF80B586B0BF
:101E080000AFF8607A603B600B46FB720023FB75FD
:101E180007F11403F8680E211A4603F08FFB0346F6
:101E2800FB75BB8AC3F30B035B041A467B681A6015
:101E380097F91730002B0FD107F11403F8680C211C
:101E48001A4603F07BFB0346FB75BB8AC3F30B03FF
:101E58005B041A463B681A60FB7D5BB2184618376C
:101E6800BD4680BD80B584B000AF7860396000237E
:101E7800FB730023BB7378680B21012203F0B2FACD
:101E88000346FB7378680B21002203F0ABFA034684
:101E98001A46FB7B1343FB7307F10D037868132184
:101EA8001A4603F023FB03461A46FB7B1343FB73D6
:101EB800BB7B0133BB737B7B03F00703002B06D08E
:101EC800BB7B022B03D897F90F30002BD3D0BB7BF9
:101ED800022B01D9F423FB73FB7B5BB21846103746
:101EE800BD4680BD80B584B000AF786039600023FE
:101EF800FB7307F10E03786813211A4603F0F6FA0C
:101F08000346FB73BB7B03F007023B681A60BB7B8D
:101F180003F01803002B01D0FA23FB73FB7B5BB2A1
:101F280018461037BD4680BD80B586B000AFF86052
:101F3800B9607A600023FB75F868B9687A6800F0C0
:101F48000DFA0346FB75FB7D5BB218461837BD4694
:101F580080BD00BF80B584B000AF786039600023D1
:101F6800FB7340F2FF73BB814FF480537B8107F111
:101F78000803786828211A4603F0E0FA0346FB7341
:101F880097F90F30002B1ED13B89C3F30B039BB28B
:101F98003B813B891A46B7F90C309A420BDD3A89E6
:101FA8007B89D31A9BB29BB21BB2FA2202FB03F2C3
:101FB8003B681A6007E03B899BB21BB2FA2202FB1E
:101FC80003F23B681A60FB7B5BB218461037BD46CC
:101FD80080BD00BF80B48BB000AFF860B9607A6094
:101FE8003B600823BB610023BB773B684FF0FF329F
:101FF8001A607A68BB69B2FBF3F37B617B68BA69E4
:10200800B3FBF2F2B96901FB02F29B1A3B617B69EF
:102018007B6230E000233B62FA687B6A13441B78DA
:10202800FB777A6A7B699A4206D1FA7F3B6942FA62
:1020380003F3FB773B693B6216E0FB7F03F0010388
:10204800002B0BD00123BB777B6ABA6902FB03F232
:102058003B6A13441A463B681A6009E0FB7F5B0839
:10206800FB773B6A01333B623A6ABB699A42E4D325
:102078007B6A01337B627A6ABB689A4202D2BB7F71
:10208800002BC7D02C37BD465DF8047B704700BFD6
:1020980080B485B000AF78600123FB737B689B092F
:1020A800BB60074ABB6852F82330002B01D10023DC
:1020B800FB73FB7B18461437BD465DF8047B7047FD
:1020C800B002002080B489B000AFF860B9607A60CF
:1020D8000023FB770823BB617A68BB69B2FBF3F383
:1020E8007B617B68BA69B3FBF2F2B96901FB02F262
:1020F8009B1A3B617A69BB689A4202D3CE23FB776D
:1021080011E0FA687B691344F9687A690A4412781D
:10211800D0B23A69012101FA02F2D2B201460A4369
:10212800D2B2D2B21A70FB7F5BB218462437BD46D2
:102138005DF8047B704700BF80B584B000AF78605D
:1021480039607868B0213A68062303F0F3F803464B
:10215800FB73FB7B5BB218461037BD4680BD00BFE2
:1021680080B584B000AF786039607868B0213A688B
:10217800062303F00DF90346FB73FB7B5BB218469D
:102188001037BD4680BD00BF80B58CB000AFF86089
:102198007A603B600B46FB72002387F82F303B6C5C
:1021A800FB613B6C3B620023BB622BE007F11C0325
:1021B8007868B96B3A6AFFF70DFFFB69B3F1FF3F27
:1021C80003D1CE2387F82F3020E0FB691A46FB6B3A
:1021D80013441846FFF75CFF03461A46FB7A9342FE
:1021E80003D0CE2387F82F3010E0FB693B623868B4
:1021F800B96B3A6AFFF766FF3B6A01333B62BB6A19
:102208000133BB62BA6A7B6C9A42CFD3BB6C3A6A21
:102218001A6097F92F30002B06D1F8683968FFF754
:102228008BFF034687F82F3097F92F30002B21D1E9
:1022380007F11403F8681946FFF792FF034687F879
:102248002F3000237B6211E03A687B6A13441A78C6
:1022580007F114017B6A0B441B789A4203D0CE2302
:1022680087F82F3006E07B6A01337B627A6ABB6BA2
:102278009A42E9D397F82F305BB218463037BD46FB
:1022880080BD00BF80B58AB000AF78603960002398
:1022980087F82730002387F826307B6893F8303199
:1022A80087F8263097F92730002B07D17868012165
:1022B800C02203F097F8034687F8273097F92730AC
:1022C800002B08D107F1080378681946FFF744FC8A
:1022D800034687F8273097F92730002B07D178680D
:1022E800FF21012203F07EF8034687F8273097F98B
:1022F8002730002B07D17868B6213A6803F01EF919
:10230800034687F8273097F92730002B07D17868DC
:10231800FF21002203F066F8034687F8273097F973
:102328002730002B12D197F82630786801211A46F9
:1023380003F058F8034687F8273097F92730002B21
:1023480004D17B6897F8262083F8302197F8273046
:102358005BB218462837BD4680BD00BFB0B59CB0FB
:1023680006AFF860B9607A60002387F85730B42365
:1023780087F83A3003237B632C233B6300233B65B8
:102388000023BB6100237B614FF42063FB8500239E
:10239800FB640023BB640623BB6200237B6200232B
:1023A8007B64002387F8433000237B7400233B744D
:1023B8000023FB63002387F83B30FB68B3F83C310C
:1023C800FB850023BB6409E0FA68BB6C134403F582
:1023D800907300221A71BB6C0133BB64BA6CBB6A80
:1023E8009A42F1D3F868FF21012202F0FBFF03466D
:1023F80087F8573097F95730002B07D1F8684F21E5
:10240800002202F0EFFF034687F8573097F957305C
:10241800002B07D1F8684E212C2202F0E3FF034677
:1024280087F8573097F95730002B07D1F868FF2104
:10243800002202F0D7FF034687F8573097F9573044
:10244800002B09D197F83A30F868B6211A4602F0FD
:10245800C9FF034687F8573097F95730002B07D143
:10246800F8688021002202F0BDFF034687F8573044
:1024780097F95730002B0CD107F1110207F110031F
:10248800F86811461A46002300F0C2FB034687F895
:10249800573097F95730002B21D100233B653B6D0E
:1024A800BB610023FB64FB6CD9B2FB6803F595752F
:1024B800FB6803F5927497F83A30BA6A0092019370
:1024C8003B6D02937B6B039307F118030493F86841
:1024D8002A462346FFF758FE034687F8573097F9F0
:1024E8005730002B73D1BB693B6507F11203F868BD
:1024F8001946FFF7C7FE034687F8573097F9573054
:10250800002B62D17B8AFA8D9A425ED20023BB648B
:1025180009E0FA68BB6C134403F5907300221A7142
:10252800BB6C0133BB64BA6CBB6A9A42F1D302E05C
:102538003B6D01333B6597F83A203B6D13441846D1
:10254800FFF7A6FD0346002B03D13A6D3B6B9A4279
:10255800EED30123FB64FB6CD9B2FB6803F59575D8
:10256800FB6803F5927497F83A30BA6A00920193BF
:102578003B6D02937B6B039307F118030493F86890
:102588002A462346FFF700FE034687F8573097F997
:102598005730002B18D1BB693B6507F11203F86867
:1025A8001946FFF76FFE034687F8573097F95730FB
:1025B800002B09D17B8AFA8D9A4205D2012387F82C
:1025C8003B307B6BFB6302E001E00023FB6497F97F
:1025D8005730002B40F0B1807B8AFA8D9A4240F246
:1025E800AC80FB6C87F83B307B6BFB63FB6803F5C7
:1025F800927307F11C0210461946BA6A07F010F8E0
:102608007B8A1A46FB8DD31A002BB8BF5B427B64CA
:10261800002387F843308BE0FB6803F5957207F1D8
:1026280014031046B96A3A6DFFF7D4FC7B69B3F11D
:10263800FF3F03D1CE2387F857307EE097F83A3032
:102648007A6913441846FFF723FD03461A46FB6CC4
:102658009A4203D0012387F843306EE0FB6B0133C5
:10266800FB637B693B65FB6803F592731846B96A9F
:102678003A6DFFF727FD034687F8573097F957302B
:10268800002B0CD13B6D01333B65FB6803F592735E
:10269800F8681946FFF750FD034687F8573097F951
:1026A8005730002B00D048E007F11203F8681946AC
:1026B800FFF7E8FD034687F8573097F95730002BA6
:1026C80000D03AE07B8A1A46FB8DD31A002BB8BF9C
:1026D8005B427B627B8AFA8D9A421DD27A6A7B6C56
:1026E8009A4215D907F11C03F8681946FFF724FD2B
:1026F800034687F85730FB6803F5927207F11C030D
:1027080010461946BA6A06F08BFFFB6B013BFB6368
:10271800012387F843300BE07B6A7B64FB6803F591
:10272800927307F11C0210461946BA6A06F078FF40
:1027380097F84330002B3FF46FAF97F95730002BD1
:1027480015D1BB68FA6B1A607B6897F83B201A7042
:10275800FB68012283F81521BB681B68DAB2FB68A5
:1027680083F813217B681A78FB6883F8142197F89B
:1027780057305BB218465837BD46B0BDB0B592B0B9
:1027880006AFF860B9601346FB71002387F82F3055
:102798000023BB62B42387F823300623FB612C2374
:1027A800BB61F868FF21012202F01CFE034687F88E
:1027B8002F3097F92F30002B07D1F8684F210022CE
:1027C80002F010FE034687F82F3097F92F30002BC0
:1027D80007D1F8684E212C2202F004FE034687F840
:1027E8002F3097F92F30002B07D1F868FF210022EE
:1027F80002F0F8FD034687F82F3097F92F30002BA9
:1028080009D197F82330F868B6211A4602F0EAFD94
:10281800034687F82F3000237B6209E0FA687B6A59
:10282800134403F5907300221A717B6A01337B62AB
:102838007A6AFB699A42F1D3FB79002B11D002E046
:10284800BB6A0133BB6297F82320BB6A134418465E
:10285800FFF71EFC0346002B03D1BA6ABB699A42F4
:10286800EED3FB6803F59575FB6803F5927497F84A
:102878002330F979FA6900920193BB6A0293BB6825
:10288800039307F114030493F8682A462346FFF7D5
:102898007BFC034687F82F3097F92F30002B0CD19B
:1028A800FB68012283F81521BB68DAB2FB6883F85C
:1028B8001321FB68FA7983F8142197F82F305BB25B
:1028C80018463037BD46B0BD80B584B000AF7860DB
:1028D8000B46FB700023FB7397F90F30002B0AD1CE
:1028E800FB7843F00103DBB2786800211A4602F056
:1028F80079FD0346FB7397F90F30002B04D17868F4
:1029080000F0C6F90346FB7397F90F30002B05D189
:1029180078680021FFF7A6FA0346FB7397F90F3092
:10292800002B06D178680021002202F05BFD0346E7
:10293800FB73FB7B5BB218461037BD4680BD00BFFA
:1029480080B584B000AF7860084611461A46034641
:10295800FB700B46BB7013467B700023FB73002390
:10296800BB737868FF21012202F03CFD03461A463A
:10297800FB7B1343FB7378680021002202F032FDD1
:1029880003461A46FB7B1343FB737868FF2100223A
:1029980002F028FD03461A46FB7B1343FB73FB78C2
:1029A800002B1ED097F82030002B09D07868CB2157
:1029B800BA6902F09BFD03461A46FB7B1343FB737F
:1029C80097F82430002B2AD007F10E037868EE21FF
:1029D8001A4602F08BFD03461A46FB7B1343FB7332
:1029E8001DE097F82030002B0AD0BB787868CB21FF
:1029F8001A4602F0F7FC03461A46FB7B1343FB73A7
:102A080097F82430002B0AD07B787868EE21802252
:102A180002F036FD03461A46FB7B1343FB737868C6
:102A2800FF21012202F0DEFC03461A46FB7B13431A
:102A3800FB7378680021012202F0D4FC03461A4691
:102A4800FB7B1343FB737868FF21002202F0CAFC6A
:102A580003461A46FB7B1343FB73BB7B23F010032F
:102A6800DAB2FB691A70FB7B5BB218461037BD46B9
:102A780080BD00BF90B58BB004AFF860B960114657
:102A88001A460B46FB711346BB710023FB750023E6
:102A9800BB7500237B7500233B750023FB74BB7952
:102AA800002B03D0FB6893F83031BB75F86801211F
:102AB800012202F097FC0346FB7597F91730002BAB
:102AC80005D1F8684021FFF7FFFE0346FB7597F92B
:102AD8001730002B15D1FB79012B12D17A7D3C7D63
:102AE800BB68009307F113030193012302930023AA
:102AF8000393F86801212346FFF722FF0346FB757D
:102B080002E0BB6800221A7097F91730002B12D127
:102B1800BB79002B0FD0BB7DF86801211A4602F063
:102B280061FC0346FB7597F91730002B03D1FB684E
:102B3800BA7D83F83021FB7D5BB218461C37BD4651
:102B480090BD00BF90B58BB004AFF860B960114676
:102B58001A460B46FB711346BB710023FB75002315
:102B6800BB7500237B7500233B75BB79002B03D015
:102B7800FB6893F83031BB75F8680121022202F036
:102B880031FC0346FB7597F91730002B05D1F8681F
:102B98000021FFF799FE0346FB7597F91730002BC4
:102BA80015D1FB79012B12D17A7D3C7D07F11303F6
:102BB8000093BB6801930023029301230393F868F1
:102BC80001212346FFF7BCFE0346FB7502E0BB6804
:102BD80000221A7097F91730002B12D1BB79002BFD
:102BE8000FD0BB7DF86801211A4602F0FBFB0346B3
:102BF800FB7597F91730002B03D1FB68BA7D83F872
:102C08003021FB7D5BB218461C37BD4690BD00BF26
:102C180080B586B000AFF860B9607A60FB700023B9
:102C2800FB750023BB75FB6893F83031BB75FB78E7
:102C3800F868B9681A460023FFF71CFF0346FB75BE
:102C480097F91730002B08D1FB78F86879681A468D
:102C58000023FFF777FF0346FB7597F91730002B22
:102C68000FD1BB7DF86801211A4602F0BBFB034671
:102C7800FB7597F91730002B03D1FB68BA7D83F8F1
:102C88003021FB7D5BB218461837BD4680BD00BFBA
:102C980080B586B000AF78600023FB750023FB7316
:102CA80000233B6107F10F0378681946FEF7ECFD36
:102CB8000346FB7597F91730002B00D011E0FB7B1A
:102CC800012B00D10DE03B6901333B613B69B3F552
:102CD800FA6F02D3F923FB7503E0786802F0A2FCCF
:102CE800E0E7FB7D5BB218461837BD4680BD00BFE4
:102CF80080B485B000AF0346FB710023FB73FB79FA
:102D08000133DBB25B00FB73FB7B18461437BD460F
:102D18005DF8047B704700BF80B485B000AF034600
:102D2800FB710023FB73FB795B08DBB2013BFB7390
:102D3800FB7B18461437BD465DF8047B704700BF1F
:102D480080B485B000AF78600023FB604FF080430B
:102D5800BB6002E0BB689B08BB60BA687B689A42AC
:102D6800F8D817E0FA68BB681A447B689A420BD80F
:102D7800FA68BB6813447A68D31A7B60FB685A0800
:102D8800BB681344FB6002E0FB685B08FB60BB6840
:102D98009B08BB60BB68002BE4D1FB68184614375E
:102DA800BD465DF8047B704780B586B000AF78609B
:102DB8000023FB7578688321002202F013FB034689
:102DC8001A46FB7D1343FB7597F91730002B1ED16C
:102DD80000233B6107F10F03786883211A4602F04C
:102DE80085FB0346FB75FB7B002B0AD197F917304F
:102DF800002B06D13B6901333B613B69B3F5FA6FA0
:102E0800E8D33B69B3F5FA6F01D3F923FB7578680A
:102E18008321012202F0E6FA03461A46FB7D13439A
:102E2800FB75FB7D5BB218461837BD4680BD00BFF9
:102E380080B598B000AF78600B46FB70002387F828
:102E48005F30002387F85E30002387F85D30002369
:102E5800BB6200237B620023BB640023A7F85A30BF
:102E68004FF4C8537B6400237B6500233B65002334
:102E78003B647B6893F8F03087F83F3097F83F3031
:102E8800072B00F0088478688021012202F0AAFA52
:102E980003461A4697F85F30134387F85F3078681F
:102EA800FF21012202F09EFA03461A4697F85F3086
:102EB800134387F85F3078680021002202F092FA05
:102EC80003461A4697F85F30134387F85F307868EF
:102ED800FF21062202F086FA03461A4697F85F3069
:102EE800134387F85F3007F13703786883211A4660
:102EF80002F0FCFA03461A4697F85F30134387F846
:102F08005F3097F8373043F00403DBB278688321E9
:102F18001A4602F067FA03461A4697F85F301343D9
:102F280087F85F307868FF21072202F05BFA0346D2
:102F38001A4697F85F30134387F85F307868812125
:102F4800012202F04FFA03461A4697F85F301343FE
:102F580087F85F30786802F065FB03461A4697F8F1
:102F68005F30134387F85F3078688021012202F0D0
:102F780039FA03461A4697F85F30134387F85F30EB
:102F8800FB7803F00103002B00F0988097F83F309E
:102F980003F00103002B40F09180786894216B22A4
:102FA80002F020FA03461A4697F85F30134387F871
:102FB8005F307868FFF7F8FE03461A4697F85F30E7
:102FC800134387F85F3007F13003786890211A4679
:102FD80002F0ECFA03461A4697F85F30134387F875
:102FE8005F303B6B1B0ADBB203F07F0387F85E3070
:102FF8003B6BDB0BDBB203F0010387F85D307868CD
:103008009421242202F0EEF903461A4697F85F301D
:10301800134387F85F307868FFF7C6FE03461A4601
:1030280097F85F30134387F85F3007F1300378680B
:1030380090211A4602F0BAFA03461A4697F85F300A
:10304800134387F85F303B6B1B0EDBB23B723B6B65
:103058001B0CDBB27B723B6B1B0ADBB2BB723B6B9C
:10306800DBB2FB7278689421252202F0BBF9034693
:103078001A4697F85F30134387F85F307868FFF790
:1030880093FE03461A4697F85F30134387F85F307C
:1030980007F13003786890211A4602F087FA034650
:1030A8001A4697F85F30134387F85F303B6B1B0E67
:1030B800DBB23B733B6B1B0CDBB27B73FB7803F01F
:1030C8000203002B00F0898197F83F3003F00203D8
:1030D800002B40F0828178689421022202F082F964
:1030E80003461A4697F85F30134387F85F307868CD
:1030F800FFF75AFE03461A4697F85F30134387F8DE
:103108005F3007F12F03786890211A4602F0EEF934
:1031180003461A4697F85F30134387F85F3078689C
:1031280094217B2202F05EF903461A4697F85F3035
:10313800134387F85F307868FFF736FE03461A4670
:1031480097F85F30134387F85F3007F12E037868EC
:1031580090211A4602F0CAF903461A4697F85F30DA
:10316800134387F85F3078689421772202F03AF9A0
:1031780003461A4697F85F30134387F85F3078683C
:10318800FFF712FE03461A4697F85F30134387F895
:103198005F3007F13003786890211A4602F006FA8A
:1031A80003461A4697F85F30134387F85F303B6B46
:1031B8005B0EDBB203F07F03DBB23B743B6B9B0C13
:1031C800DBB203F07F03DBB27B743B6BDB0ADBB261
:1031D80003F07F03DBB2BB743B6B1B09DBB203F06C
:1031E8007F03DBB2FB743B6BDBB203F00F03DBB294
:1031F800DB00DBB287F8373078689421782202F058
:10320800F1F803461A4697F85F30134387F85F30A2
:103218007868FFF7C9FD03461A4697F85F301343ED
:1032280087F85F3007F13003786890211A4602F07A
:10323800BDF903461A4697F85F30134387F85F30A5
:103248003B6B5B0FDBB203F07F03DAB297F83730E2
:103258001344DBB23B753B6B9B0DDBB203F07F0382
:10326800DBB27B753B6BDB0BDBB203F07F03DBB2BE
:10327800BB753B6B1B0ADBB203F07F03DBB2FB754C
:103288003B6B5B08DBB203F07F03DBB23B763B6B47
:10329800DBB203F00103DBB29B01DBB287F8373006
:1032A80078689421792202F09DF803461A4697F827
:1032B8005F30134387F85F307868FFF775FD034682
:1032C8001A4697F85F30134387F85F3007F13003E9
:1032D800786890211A4602F069F903461A4697F869
:1032E8005F30134387F85F303B6B9B0EDBB203F014
:1032F8007F03DAB297F837301344DBB27B763B6B47
:10330800DB0CDBB203F07F03DBB2BB763B6B1B0B42
:10331800DBB203F07F03DBB2FB763B6B5B09DBB20E
:1033280003F07F03DBB23B773B6BDBB203F01F0399
:10333800DBB29B00DBB287F83730786894217A22B9
:1033480002F050F803461A4697F85F30134387F89F
:103358005F307868FFF728FD03461A4697F85F3014
:10336800134387F85F3007F13003786890211A46D5
:1033780002F01CF903461A4697F85F30134387F8A2
:103388005F303B6B9B0FDBB203F07F03DAB297F839
:1033980037301344DBB27B773B6BDB0DDBB203F0DA
:1033A8007F03DBB2BB773B6B1B0CDBB203F07F0305
:1033B800DBB2FB773B6B5B0ADBB203F07F03DBB26C
:1033C80087F820303B6B9B08DBB203F07F03DBB24E
:1033D80087F82130002387F82230FB7803F00403B4
:1033E800002B00F0F18097F83F3003F00403002B26
:1033F80040F0EA80786894217B2201F0F3FF0346CD
:103408001A4697F85F30134387F85F307868FFF7FC
:10341800CBFC03461A4697F85F30134387F85F30B2
:1034280007F12803786890211A4602F0BFF803468E
:103438001A4697F85F30134387F85F30786894210D
:103448007C2201F0CFFF03461A4697F85F301343FA
:1034580087F85F307868FFF7A7FC03461A4697F8A5
:103468005F30134387F85F3007F1240378689021B1
:103478001A4602F09BF803461A4697F85F30134342
:1034880087F85F3078689421732201F0ABFF034618
:103498001A4697F85F30134387F85F307868FFF76C
:1034A80083FC03461A4697F85F30134387F85F306A
:1034B80007F13003786890211A4602F077F803463E
:1034C8001A4697F85F30134387F85F303B6B1B024F
:1034D8009BB23B6578689421742201F083FF034610
:1034E8001A4697F85F30134387F85F307868FFF71C
:1034F8005BFC03461A4697F85F30134387F85F3042
:1035080007F13003786890211A4602F04FF8034615
:103518001A4697F85F30134387F85F303B6B1B0EF2
:103528003A6D13433B6578689421752201F05AFF80
:1035380003461A4697F85F30134387F85F30786878
:10354800FFF732FC03461A4697F85F30134387F8B3
:103558005F3007F13003786890211A4602F026F8A8
:1035680003461A4697F85F30134387F85F303B6B82
:103578001B029BB27B6578689421762201F032FFAA
:1035880003461A4697F85F30134387F85F30786828
:10359800FFF70AFC03461A4697F85F30134387F88B
:1035A8005F3007F13003786890211A4601F0FEFF7A
:1035B80003461A4697F85F30134387F85F303B6B32
:1035C8001B0E7A6D13437B6578688121002201F018
:1035D80009FF03461A4697F85F30134387F85F30B0
:1035E8007868FF21062201F0FDFE03461A4697F887
:1035F8005F30134387F85F3007F13703786883211A
:103608001A4601F073FF03461A4697F85F301343D2
:1036180087F85F3097F8373023F00403DBB2786817
:1036280083211A4601F0DEFE03461A4697F85F30FA
:10363800134387F85F307868FF21012201F0D2FE3A
:1036480003461A4697F85F30134387F85F30786867
:103658000021012201F0C6FE03461A4697F85F30A2
:10366800134387F85F307868FF21002201F0BAFE23
:1036780003461A4697F85F30134387F85F30786837
:103688008021002201F0AEFE03461A4697F85F300B
:10369800134387F85F3097F95F30002B40F08F8035
:1036A80097F83F30072B00F08A80FB7803F001037E
:1036B800002B24D097F83F3003F00103002B1ED1D4
:1036C8007B6897F85E2083F813217B6897F85D2064
:1036D80083F814210023FB640EE007F10802FB6C59
:1036E800134419787A68FB6C134403F590730A46FF
:1036F8009A72FB6C0133FB64FB6C052BEDDDFB78E8
:1037080003F00203002B18D097F83F3003F00203B0
:10371800002B12D197F82F207B6883F8F12097F8B7
:103728002E207B6883F8F2207B68F333BB6307F1B4
:103738001003B86B194605F086FFFB7803F0040305
:10374800002B30D097F83F3003F00403002B2AD128
:10375800BA6A7B68C3F818217A6A7B68C3F81C21A7
:103768003B6D5B023B647B683A6CC3F82021002305
:10377800A7F85A307B6D002B11D07A6D7B6CD31A69
:10378800BB64BB6C4FF47A7202FB03F31B09A7F806
:103798005A30B7F85A305B429BB2A7F85A30B7F99B
:1037A8005A207B68DA6097F83F20FB781343DBB236
:1037B80087F8373097F837207B6883F8F02097F838
:1037C8005F305BB218466037BD4680BD80B487B0B5
:1037D80000AF78600B46FB7040F277624FF0000351
:1037E800C7E904234FF41063FB60FB78FA6802FB17
:1037F80003F33A6902FB03F3BB60BB6818461C3746
:10380800BD465DF8047B704780B487B000AF786030
:103818000023FB8200233B610023FB817B68002B94
:1038280017D07B68013B3B6105E03B695B083B6166
:10383800FB890133FB813B6923F0FF03002BF4D1A3
:10384800FB891B029AB23B699BB2DBB29BB2134461
:10385800FB82FB8A18461C37BD465DF8047B70471F
:1038680080B485B000AF0346FB800023FB60FB8873
:10387800DBB2FA88120A92B293400133FB60FB680C
:1038880018461437BD465DF8047B704780B588B08C
:1038980000AFF860B9601346FB710023FB61FB7948
:1038A800F8681946FFF792FFB861BB6903F5FA7328
:1038B8000A4AA2FB03239B097B61BB684FF47A7217
:1038C80002FB03F27B695B081A447B69B2FBF3F3E2
:1038D800FB61FB6918462037BD4680BDD34D621099
:1038E80080B586B000AF78600B467B8013467B704E
:1038F80000237B617B7878681946FFF767FF38619A
:103908003B6903F5FA730A4AA2FB03239B09FB6090
:103918007B88FA6802FB03F303F5FA73044AA2FBF7
:1039280003239B097B617B6918461837BD4680BD18
:10393800D34D621080B58CB000AFF8600B467A604A
:10394800FB72002387F82F30002387F820300023EC
:10395800BB620023FB830023BB84FB7A002B05D0CA
:10396800FB7A012B02D0FB7A022B29D107F1210324
:10397800F86800211A46FDF769FA034687F82F30E0
:1039880097F92F30002B09D107F12003F868462159
:103998001A4601F0ABFD034687F82F3097F8203020
:1039A8009BB21846FFF75CFF03467B8497F82130EB
:1039B8007A8CF86811461A46FFF792FFB86294E0CD
:1039C800FB7A032B36D107F12103F86800211A4648
:1039D800FDF73CFA034687F82F3097F92F30002B74
:1039E80040F0838007F12103F86800211A46FDF7AB
:1039F8002DFA034687F82F3097F92F30002B09D17D
:103A080007F11E03F86851211A4601F097FD034695
:103A180087F82F30FB8B1846FFF722FF0346FB84FD
:103A280097F82130FA8CF86811461A46FFF758FFC4
:103A3800B8625AE0FB7A042B57D107F11403F868EF
:103A48001946FDF70BFB0023FB84FB7D002B1DD0E3
:103A580007F12103F86800211A46FDF7F7F9034634
:103A680087F82F3097F92F30002B0FD107F11E035D
:103A7800F86851211A4601F061FD034687F82F3096
:103A8800FB8B1846FFF7ECFE0346FB8497F92F30B3
:103A9800002B09D107F12103F86801211A46FDF727
:103AA800D5F9034687F82F3097F92F30002B0FD11F
:103AB80007F11C03F86871211A4601F03FFD03461F
:103AC80087F82F30BB8B1846FFF7CAFE0346BB8426
:103AD800BA8CFB8CD31ABB8497F82130BA8CF8685F
:103AE80011461A46FFF7FCFEB8627B68BA6A1A608C
:103AF80097F82F305BB218463037BD4680BD00BFFF
:103B080080B58AB000AFF8600B467A60FB7200237C
:103B180087F82730FB7A002B05D0FB7A012B02D0DF
:103B2800FB7A022B38D107F11B03F86800211A46EB
:103B3800FDF78CF9034687F8273097F92730002BD3
:103B48001AD1FB7EF86879681A46FFF79FFE03468C
:103B5800BB83BB8BB3F5807F03D9FF2387F826305F
:103B680004E0BB8BDBB2013B87F8263097F82630A0
:103B78009AB2FB68A3F8D82097F92730002B0AD10E
:103B880097F82630F86846211A4601F02BFC0346C0
:103B980087F82730A0E09FE0FB7A032B35D197F90F
:103BA8002730002B1BD107F11B03F86800211A46A8
:103BB800FDF74CF9034687F82730FB7EF8687968EB
:103BC8001A46FFF763FE0346BB84BB8C1846FFF713
:103BD8001BFE03463B833A8BFB68A3F8D82097F972
:103BE8002730002B08D13B8BF86851211A4601F089
:103BF8001DFC034687F8273097F92730002B6BD137
:103C0800FB687A68C3F8E42066E0FB7A042B60D18D
:103C180007F11003F8681946FDF720FA0023BB8462
:103C2800FB7C002B1DD007F11B03F86800211A4606
:103C3800FDF70CF9034687F8273097F92730002B52
:103C48000FD107F11803F86851211A4601F076FCE4
:103C5800034687F827303B8B1846FFF701FE0346DB
:103C6800BB8497F92730002B09D107F11B03F868AB
:103C780001211A46FDF7EAF8034687F8273097F935
:103C88002730002B28D1FB7EF86879681A46FFF7A1
:103C9800FDFD3862BB8C3A6A13443B62386AFFF711
:103CA800B3FD0346FB8397F92730002B08D1FB8B24
:103CB800F86871211A4601F0B9FB034687F82730E6
:103CC80097F92730002B07D1FB687A68C3F8DC2006
:103CD80002E0FC2387F8273097F827305BB21846B4
:103CE8002837BD4680BD00BF80B58AB000AF786078
:103CF8000B46FB701346BB70002387F827300C2354
:103D080087F82630122387F82530082387F82430CF
:103D18000E2387F823300023FB73BB7803F00103DD
:103D2800DBB2002B03D0FC2387F8273020E0FB7898
:103D3800002B0DD1BA7897F826309A4204D3BA7876
:103D480097F825309A4203D9FC2387F827300FE0EB
:103D5800FB78012B0CD1BA7897F824309A4204D317
:103D6800BA7897F823309A4202D9FC2387F827308B
:103D780097F92730002B02D097F8273038E2FB78E4
:103D8800002B50D1BB780C2B10D178685721182202
:103D980001F028FB034687F8273078685621082267
:103DA80001F020FB034687F827307FE1BB780E2B14
:103DB80010D178685721302201F014FB034687F8A8
:103DC800273078685621082201F00CFB034687F853
:103DD80027306BE1BB78102B10D17868572140222F
:103DE80001F000FB034687F827307868562108223F
:103DF80001F0F8FA034687F8273057E1BB78122B11
:103E080040F0548178685721502201F0EBFA0346BC
:103E180087F8273078685621082201F0E3FA03462C
:103E280087F8273042E1FB78012B40F03F81BB78CF
:103E3800082B4CD178684821102201F0D3FA0346A8
:103E480087F8273078684721082201F0CBFA034623
:103E580087F8273078683221022201F0C3FA034636
:103E68001A4697F82730134387F8273078683021A7
:103E78000C2201F0B7FA03461A4697F82730134385
:103E880087F827307868FF21012201F0ABFA034652
:103E98001A4697F82730134387F827307868302177
:103EA800302201F09FFA03461A4697F82730134349
:103EB80087F827307868FF21002201F093FA03463B
:103EC8001A4697F82730134387F82730EEE0BB7877
:103ED8000A2B4CD178684821282201F083FA03463E
:103EE80087F8273078684721082201F07BFA0346D3
:103EF80087F8273078683221032201F073FA0346E5
:103F08001A4697F82730134387F827307868302106
:103F1800092201F067FA03461A4697F82730134337
:103F280087F827307868FF21012201F05BFA034601
:103F38001A4697F82730134387F8273078683021D6
:103F4800202201F04FFA03461A4697F82730134308
:103F580087F827307868FF21002201F043FA0346EA
:103F68001A4697F82730134387F827309EE0BB7826
:103F78000C2B4CD178684821382201F033FA0346DB
:103F880087F8273078684721082201F02BFA034682
:103F980087F8273078683221032201F023FA034694
:103FA8001A4697F82730134387F827307868302166
:103FB800082201F017FA03461A4697F827301343E8
:103FC80087F827307868FF21012201F00BFA0346B1
:103FD8001A4697F82730134387F827307868302136
:103FE800202201F0FFF903461A4697F827301343B9
:103FF80087F827307868FF21002201F0F3F903469B
:104008001A4697F82730134387F827304EE0BB78D5
:104018000E2B4BD178684821482201F0E3F903467A
:1040280087F8273078684721082201F0DBF9034632
:1040380087F8273078683221032201F0D3F9034644
:104048001A4697F82730134387F8273078683021C5
:10405800072201F0C7F903461A4697F82730134399
:1040680087F827307868FF21012201F0BBF9034661
:104078001A4697F82730134387F827307868302195
:10408800202201F0AFF903461A4697F82730134368
:1040980087F827307868FF21002201F0A3F903464A
:1040A8001A4697F82730134387F8273097F92730AF
:1040B800002B7ED1BB781846FEF72EFE034687F804
:1040C8002230FB78002B02D0012B45D06EE007F19F
:1040D8001403786803211A46FFF72CFC034687F877
:1040E800273097F92730002B09D107F1100378689A
:1040F80002211A46FFF71EFC034687F8273097F976
:104108002730002B09D197F82230786850211A46B9
:1041180001F068F9034687F8273097F92730002B14
:1041280008D17B69786803211A46FFF7E9FC034642
:1041380087F8273097F92730002B08D13B69786832
:1041480002211A46FFF7DCFC034687F827307B6814
:10415800BA7883F8E8202CE007F11803786804217E
:104168001A46FFF7E7FB034687F8273097F9273009
:10417800002B09D197F82230786870211A4601F08F
:1041880031F9034687F8273097F92730002B08D1F3
:10419800BB69786804211A46FFF7B2FC034687F822
:1041A80027307B68BA7883F8E02002E0FC2387F8A0
:1041B800273097F92730002B09D17B685B69FB61B1
:1041C8007868F969FCF700FE034687F8273097F905
:1041D8002730002B0AD107F10F037868194600220F
:1041E8000123FEF7AFFC034687F8273097F82730FE
:1041F8005BB218462837BD4680BD00BF80B586B083
:1042080000AFF8600B467A60FB720023FB75FB7AFF
:10421800002B02D0012B0AD013E007F11603F8682F
:1042280050211A4601F062F90346FB750BE007F1CD
:104238001603F86870211A4601F058F90346FB7511
:1042480001E0FC23FB7597F91730002B07D1BB7DE4
:104258001846FEF74DFD03461A467B681A70FB7D2B
:104268005BB218461837BD4680BD00BF80B592B016
:1042780000AF78603960002387F847304FF4FA635D
:104288003B6140F27673FB634FF47073BB634FF48A
:1042980025737B6340F24E233B6340F2B223FB62FB
:1042A8004FF42573BB6240F226237B620023FB6038
:1042B80044F620633B620023FB613A683B6A9A42FA
:1042C80005D2FC2387F8473097F84730AAE0FA6B05
:1042D800BB6B13443A68D31A3B6407F1140378683C
:1042E8001946FCF7BBFE034687F8473097F9473075
:1042F800002B5BD13B7D002B05D17B7D002B02D1B0
:10430800BB7D002B52D007F11003786802211A46B2
:10431800FFF710FB034687F8473097F94730002B23
:1043280002D097F847307DE03B7D002B0FD03A69EB
:104338003B6B1344FB61FA693B6C9A4204D23A6CBA
:10434800FB69D31A3B6402E0FC2387F8473097F9EE
:104358004730002B02D097F8473063E0BB7D002B35
:1043680011D03A69FB6A13445B00FB61FA693B6C44
:104378009A4204D23A6CFB69D31A3B6416E0FC23D8
:1043880087F8473012E07B7D002B0FD03A697B6BB2
:104398001344FB61FA693B6C9A4204D23A6CFB699C
:1043A800D31A3B6402E0FC2387F8473097F947307B
:1043B800002B02D097F8473034E0FB7D002B19D052
:1043C80007F10C03786803211A46FFF7B3FA03468E
:1043D80087F84730FA68BB6A1344FB61FA693B6C9B
:1043E8009A4204D23A6CFB69D31A3B6402E0FC237C
:1043F80087F8473097F94730002B11D13B7E002BC7
:104408000ED03A6C7B6AD31A3B64786804213A6C04
:10441800FFF776FB034687F847307B683A685A61AE
:1044280097F847305BB218464837BD4680BD00BF95
:1044380080B590B000AF78603960002387F83F30CE
:104448004FF4FA633B6140F27673BB634FF47073C9
:104458007B634FF425733B6340F24E23FB6240F2CB
:10446800B223BB624FF425737B6240F226233B6282
:104478000023FB60BA6B7B6B1A443B681A6007F138
:10448800180378681946FCF7E9FD034687F83F30BA
:1044980097F93F30002B02D097F83F3075E03B7E0C
:1044A800002B05D17B7E002B02D1BB7E002B30D0A8
:1044B80007F11003786802211A46FFF73BFA034612
:1044C80087F83F3097F93F30002B22D13B7E002BF5
:1044D80007D03B681A683969FB6A0B441A443B6881
:1044E8001A60BB7E002B09D03B681A683969BB6A21
:1044F8000B445B001A443B681A600AE07B7E002B81
:1045080007D03B681A6839693B6B0B441A443B680F
:104518001A6097F93F30002B14D1FB7E002B11D085
:1045280007F10C03786803211A46FFF703FA0346DC
:1045380087F83F303B681A68F9687B6A0B441A446D
:104548003B681A6097F93F30002B14D13B7F002B52
:1045580011D007F11403786804211A46FFF7EAF925
:10456800034687F83F303B681A6879693B6A0B4411
:104578001A443B681A6097F93F30002B03D13B6817
:104588001A687B685A6197F83F305BB21846403723
:10459800BD4680BD80B588B000AF78603960002323
:1045A800FB7700237B61C6E07B693A6813441B787C
:1045B800FB747B6901337B61FB7CFF2B40F08D80B2
:1045C8007B693A6813441B78BB747B6901337B6150
:1045D800BB7C032B7ED801A252F823F0F5450008D6
:1045E8002F46000869460008A34600087B693A6818
:1045F80013441B787B747B6901337B617B693A6860
:1046080013441B783B747B6901337B617B7C9BB2D1
:104618001B029AB23B7C9BB21344FB817B68FA89EC
:10462800A3F8342158E07B693A6813441B787B74FB
:104638007B6901337B617B693A6813441B783B745F
:104648007B6901337B617B7C9BB21B029AB23B7C0A
:104658009BB21344FB817B68FA89A3F836213BE0BF
:104668007B693A6813441B787B747B6901337B61EF
:104678007B693A6813441B783B747B6901337B611F
:104688007B7C9BB21B029AB23B7C9BB21344FB819E
:104698007B68FA89A3F838211EE07B693A681344DD
:1046A8001B787B747B6901337B617B693A681344AF
:1046B8001B783B747B6901337B617B7C9BB21B025B
:1046C8009AB23B7C9BB21344FB817B68FA89A3F8BE
:1046D8003C2101E0FC23FB772DE0FB7C042B28D850
:1046E8007B693A6813441B787B737B6901337B6170
:1046F8000023BB610FE07B693A681344197807F11E
:104708000802BB6913440A461A707B6901337B614E
:10471800BB690133BB61FA7CBB699A42EBDCFB7C69
:10472800797B07F10802786800F004FE0346FB77FE
:1047380001E0FC23FB777B693A6813441B78002B64
:1047480004D097F91F30002B3FF42EAFFB7F5BB2EC
:1047580018462037BD4680BD80B588B000AFF860E8
:10476800B9607A600023FB777B6800221A6007F142
:104778001303F8681946FCF7FDFC0346FB7797F925
:104788001F30002B11D1FB7C002B0ED0FB681B6A5D
:10479800BB61BB689B8A1A46BB6903FB02F37B615A
:1047A8007B6980331A0A7B681A60FB7F5BB2184604
:1047B8002037BD4680BD00BF80B586B000AFF86029
:1047C800B9607A600023FB75BB68DA687B681A6099
:1047D80007F11003F868B9681A46FFF7BDFF0346EA
:1047E800FB7597F91730002B05D17B681A683B6970
:1047F8001A447B681A60FB7D5BB218461837BD46C1
:1048080080BD00BF80B59AB000AFF860B9607A602B
:104818003B6012237B654FF480433B654223FB6476
:104828000623BB6407237B64002387F84330FB68B7
:10483800B3F85431FB63FB68D3F85831BB63FB6BA7
:10484800BA6B02FB03F37B637B6B80331B0A7B63CE
:104858007B6BFA6B02FB03F37B6300237B667B684D
:10486800002B1BD0BB689B023B637B685A083B6BE1
:1048780013447B667A6E7B68B2FBF3F37B667A6ED1
:1048880013465B0013447B667B6E7A6E02FB03F370
:104898007B667B6E03F500431B0C7B663B683A6FB7
:1048A80002FB03F3FB62FB6A03F500431B0CFB628C
:1048B800FB6AFA6A02FB03F3FB627B6F03F50043B2
:1048C8001B0CBB62BB6C5A08BB6A1A44BB6CB2FBBC
:1048D800F3F3BB62BB6A7A6C02FB03F3BB62BB6A8D
:1048E800B3F5803F02D3564B3B6616E0BB6C5A08C3
:1048F8007B6F1A44BB6CB2FBF3F37B677B6F7A6CFC
:1049080002FB03F37B677B6F03F500431B0C3B66DD
:104918003B6E3A6E02FB03F33B667B6D9B0303F52C
:10492800FA73484AA2FB03239B097B627B6A7A6A73
:1049380002FB03F37B62FB6CFA6C02FB03F33B6242
:104948003B6A08331B093B627A6A3B6AD31A7B626B
:104958007A6A13465B0013441B01FB61FB6903F58C
:1049680000539B0BFB61FA6A3B6E1344BB61BB6F40
:104978005B08BA691344BB61BA69BB6FB2FBF3F356
:10498800BB61BB699B03BB61FB695B08BA691344E4
:10499800BB61BA69FB69B2FBF3F3BB61BB697A6EB1
:1049A80002FB03F3BB61BB6903F5FA73254AA2FB5B
:1049B80003239B09BB61BB691B01BB61BB6903F591
:1049C800FA73204AA2FB03239B09BB613B6D80332A
:1049D8001B0A7B617B69002B08D07B695A087B6BBB
:1049E8001A447B69B2FBF3F3BB6501E00023BB65A6
:1049F800B86DFEF7A5F93861BB69002B08D0BB6913
:104A08005A087B6B1A44BB69B2FBF3F3FB6501E000
:104A18000023FB65F86DFEF793F9F865FB6F3A69BB
:104A28001A603A69FB6D9A4202D9FB6FFA6D1A60F7
:104A380097F843305BB218466837BD4680BD00BF63
:104A48000000F0FFD34D621080B5B4B004AFF86039
:104A5800B9607A603B604FF44873C7F890304FF400
:104A68001673C7F88C304FF4C813C7F8883041F272
:104A78005C23C7F884309E4BC7F880304FF47043EE
:104A8800FB674FF07042D7F88C30B2FBF3F3BB678B
:104A9800984B7B674FF400433B674FF44813FB6622
:104AA80040F27763BB66002387F89F30FB681B6A78
:104AB8007B61BB681B694FF47A7202FB03F31B0C22
:104AC8007B66BB68DB683B6607F11003F868B9686A
:104AD8001A46FFF771FE034687F89F3007F1140363
:104AE800F868B9681A46FFF737FE034687F89F301B
:104AF8003B694FF47A7202FB03F3FB65FB6D03F528
:104B080000431B0CFB657B694FF47A7202FB03F3CD
:104B1800C7F8A030D7F8A020FB6E9A4202D9FB6EE6
:104B2800C7F8A03097F99F30002B68D1FB68D3F8FD
:104B3800DC30C7F8B830FB6893F8E03087F85B30B2
:104B480097F85B30F868D7F8B8101A46FEF79EFE5B
:104B58007865FB68D3F8E430C7F8B430FB6893F89D
:104B6800E83087F8533097F85330F868D7F8B4101E
:104B78001A46FEF78BFEF8640323C7F8983097F8B7
:104B88005B30082B02D10223C7F89830FA6C7B6D92
:104B98001344D7F8982002FB03F3DB02C7F89430DC
:104BA800D7F8943003F5FA73534AA2FB03239B0901
:104BB800C7F89430D7F89430BA6E02FB03F3C7F8FD
:104BC8009430D7F8943003F5FA734B4AA2FB0323C9
:104BD8009B09C7F894303B6980331B0A3B613B69EA
:104BE800D7F8942002FB03F3C7F8BC30D7F8BC30E1
:104BF80080331B0AC7F8BC303B691B023B6197F93D
:104C08009F30002B02D097F89F3066E1FB6D002B98
:104C18000CD17B68D7F880201A60FB68D7F8802011
:104C2800C3F840213B6800221A6054E1D7F8BC3031
:104C3800002B02D10123C7F8BC30D7F89030BB64F1
:104C48007B6E1A04FB6DB2FBF3F3C7F8B030D7F8EC
:104C5800B020BB6F9A4202D9BB6FC7F8B030D7F803
:104C6800B030D7F88C2002FB03F3C7F8B030D7F880
:104C7800BC2013465B0013449B001846FEF760F8FF
:104C880003465B007B64BB681B891A467B6F03FB8A
:104C980002F33B64FB6D1A04D7F8A0305B00D31A0B
:104CA80003F5FA73144AA2FB03239B09FB63FB6D0C
:104CB8001B0403F5FA73104AA2FB03239B09BB6389
:104CC800FB6B1B02FB63FA6BBB6BB2FBF3F3002BB2
:104CD800B8BF5B427B637B6B1B027B63BB681B7E3D
:104CE800002B0BD04FF48033C7F8AC3035E000BF51
:104CF800AE878F029A990600D34D62103A6CD7F8A6
:104D08008430B2FBF3F3C7F8AC307B6BC3F5803269
:104D1800D7F8AC3002FB03F3C7F8AC30D7F8AC20B7
:104D28003B6F13441B0CC7F8AC30D7F8AC3003F515
:104D38008033C7F8AC30D7F8AC305B08C7F8AC3074
:104D4800D7F8AC30D7F8AC2002FB03F3C7F8AC3087
:104D5800D7F8AC309B0BC7F8AC30D7F8AC30BA6C8E
:104D680002FB03F33B633B6B03F500431B0C3B6304
:104D78003B6B3A6B02FB03F33B63D7F8B030FB6243
:104D8800FB6A03F500431B0CFB62FB6AFA6A02FB31
:104D980003F3FB623A6BFB6A1344BB62B86AFDF724
:104DA800CFFF78627B6A1B047B627B6A32334D4A91
:104DB800A2FB03235A097B6CB2FBF3F3C7F8A830B4
:104DC800D7F8A83040F6B53202FB03F3C7F8A8308D
:104DD800D7F8A83003F59C530833C7F8A830D7F89C
:104DE800A830414AA2FB03235B0BC7F8A830D7F8C9
:104DF800A820FB6F9A4202D9FB6FC7F8A830D7F8F2
:104E0800B820D7F8B430134403F5FA73374AA2FB35
:104E180003239B093B623B6A5A08D7F888301A4437
:104E28003B6AB2FBF3F31846FDF78AFFF861FB69AA
:104E38001B02FB61FB6903F5FA732C4AA2FB0323EF
:104E48009B09FB61D7F8A830D7F8A82002FB03F329
:104E58003B63FB69FA6902FB03F3FB623A6BFB6A8B
:104E680013441846FDF76CFFB861BB694FF47A72BA
:104E780002FB03F3C7F8A430FB6D002B09D0D7F869
:104E8800BC30002B05D0D7F8A420D7F880309A4240
:104E980003D9D7F88030C7F8A4307B68D7F8A420A6
:104EA8001A607B681A68FB68C3F840213A69BB6CD2
:104EB8000093D7F8B0300193D7F8943002933B6849
:104EC8000393F86811463A6ED7F8AC30FFF79AFCAE
:104ED800034687F89F3097F89F305BB21846C03773
:104EE800BD4680BD1F85EB515917B7D1D34D621010
:104EF80080B590B000AFF8607A601A460B46FB7236
:104F080013463B81002387F83F30002387F83D3064
:104F1800002387F83C30002387F83B30002387F8CC
:104F28002B30002387F82A30002387F82930002304
:104F380087F82830002387F832300023FB820023CB
:104F48003B61FB7A03F07803DB1087F8323097F87F
:104F58003230002B17D097F83230052B13D097F842
:104F68003230072B0FD097F832300C2B0BD097F834
:104F780032300D2B07D097F832300E2B03D097F82C
:104F880032300F2B03D1012387F83E3002E0002393
:104F980087F83E3097F93F30002B09D107F12B03F2
:104FA800F86800211A46FCF7BBF9034687F83F303A
:104FB80097F82B30002B2ED097F93F30002B2AD1B1
:104FC80007F1240207F11003F868B96CFFF73CFDFC
:104FD800034687F83F3097F93F30002B03D13B69F0
:104FE8009AB2BB6C5A8197F93F30002B13D107F165
:104FF8002003F86800211A46FCF718FA034687F8D8
:105008003F303B6A002B06D07A6A3B6A9A4202D943
:10501800012387F83D3097F93F30002B09D107F17C
:105028002903F86802211A46FCF77AF9034687F83B
:105038003F3097F82930002B44D097F93F30002BA8
:1050480040D107F11C03F86802211A46FCF7EEF973
:10505800034687F83F3097F93F30002B07D1F868AF
:10506800FF21012200F0BEF9034687F83F3097F987
:105078003F30002B09D107F11603F868B6211A460C
:1050880000F05CFA034687F83F3097F93F30002B71
:1050980007D1F868FF21002200F0A4F9034687F839
:1050A8003F30FB8A5B02FB62FB68FA6AC3F848215F
:1050B800FB69002B06D0FB69FA6A9A4202D90123E0
:1050C80087F83C3097F93F30002B09D107F12803C6
:1050D800F86803211A46FCF723F9034687F83F309E
:1050E80097F82830002B23D097F93F30002B1FD199
:1050F8003B89002B02D100237B6305E07B681A0201
:105108003B89B2FBF3F37B6307F11803F8680321CB
:105118001A46FCF78BF9034687F83F30BB69002B2A
:1051280006D0BB697A6B9A4202D2012387F83B30DA
:1051380097F93F30002B4AD197F83E30012B03D125
:10514800FB6CFF221A7042E097F83230012B07D02F
:1051580097F83230022B03D097F83230032B03D163
:10516800FB6C05221A7032E097F83230062B03D018
:1051780097F83230092B03D1FB6C04221A7026E011
:1051880097F83230082B07D097F832300A2B03D023
:1051980097F83C30012B03D1FB6C03221A7016E000
:1051A80097F83230042B03D097F83B30012B03D10A
:1051B800FB6C02221A700AE097F83D30012B03D1EC
:1051C800FB6C01221A7002E0FB6C00221A70FB6C67
:1051D8001B78002B02D1BB6C00225A8107F12A03ED
:1051E800F86801211A46FCF79BF8034687F83F3018
:1051F80097F93F30002B4FD197F82B30002B03D075
:1052080097F83D30012B03D1012387F8333002E0B2
:10521800002387F83330FB6897F8332083F82E2073
:1052280097F83230042B03D097F82A30002B03D19B
:10523800012387F8333002E0002387F83330FB6816
:1052480097F8332083F82F2097F82930002B03D0C4
:1052580097F83C30012B03D1012387F8333002E063
:10526800002387F83330FB6897F8332083F8302021
:1052780097F82830002B03D097F83B30012B03D147
:10528800012387F8333002E0002387F83330FB68C6
:1052980097F8332083F8312097F83F305BB21846EF
:1052A8004037BD4680BD00BF90B589B002AFF860F9
:1052B800B9607A607B680A337B61FB68D3F85C115C
:1052C800FB6893F860319AB27B689CB27B69009363
:1052D80008461146BA68234600F058FF03463B616A
:1052E8003B6918461C37BD4690BD00BF90B589B0D4
:1052F80002AFF860B9607A607B680A337B61FB684B
:10530800D3F85C11FB6893F8603143F00103DBB21A
:105318009AB27B689CB27B69009308461146BA68CA
:10532800234601F033F803463B613B6918461C37B6
:10533800BD4690BD80B586B000AFF8607A603B602E
:105348000B46FB720023FB753B683F2B01D9FC23FE
:1053580015E00D4AFB7A13700C4879683A6804F036
:105368005FF93B680133F86807491A46FFF79CFF65
:1053780038613B69002B01D0EC23FB75FB7D5BB2E8
:1053880018461837BD4680BDE8020020E902002013
:1053980080B586B000AFF8607A603B600B46FB7260
:1053A8000023FB7507F10B03F86819460122FFF784
:1053B8007BFF38613B69002B02D0EC23FB750AE0C8
:1053C800F86879683A68FFF791FF38613B69002B04
:1053D80001D0EC23FB75FB7D5BB218461837BD4640
:1053E80080BD00BF80B584B000AF78600B46FB700D
:1053F8001346BB700023FB730B4AFB7813700A4AF1
:10540800BB785370786808490222FFF74DFFB860EF
:10541800BB68002B01D0EC23FB73FB7B5BB2184607
:105428001037BD4680BD00BFE802002080B584B0BB
:1054380000AF78600B46FB7013463B800023FB737C
:105448000E4AFB7813703B881B0A9BB2DAB20B4BEF
:105458005A703B88DAB2094B9A7078680749032278
:10546800FFF722FFB860BB68002B01D0EC23FB7369
:10547800FB7B5BB218461037BD4680BDE8020020B2
:1054880080B584B000AF7860084611461A460346D6
:10549800FB700B46BB7013467B700023FB73FA78D6
:1054A80007F10E03786811461A4600F01FF8034604
:1054B800FB7397F90F30002B00D010E0BA7BBB7854
:1054C8001340DAB27B781343DBB2BB73BB7BFA7849
:1054D800786811461A46FFF785FF0346FB73FB7B86
:1054E8005BB218461037BD4680BD00BF80B586B098
:1054F80000AFF8600B467A60FB720023FB7507F17A
:105508000B03F86819460122FFF7CEFE38613B69A4
:10551800002B02D0EC23FB750AE0F86879680122B9
:10552800FFF7E4FE38613B69002B01D0EC23FB75E3
:10553800FB7D5BB218461837BD4680BD80B586B086
:1055480000AFF8600B467A60FB720023FB7507F129
:105558000B03F86819460122FFF7A6FE38613B697C
:10556800002B02D0EC23FB7517E0F8680E490222E5
:10557800FFF7BCFE38613B69002B02D0EC23FB75BA
:105588000BE0094B1B789BB21B029AB2064B5B7867
:105598009BB213449AB27B681A80FB7D5BB21846B3
:1055A8001837BD4680BD00BFE802002080B586B030
:1055B80000AFF8600B467A60FB720023FB7507F1B9
:1055C8000B03F86819460122FFF76EFE38613B6944
:1055D800002B02D0EC23FB751BE0F868104904226D
:1055E800FFF784FE38613B69002B02D0EC23FB7582
:1055F8000FE00B4B1B781A06094B5B781B041A4407
:10560800074B9B781B021344054AD2781A447B68DF
:105618001A60FB7D5BB218461837BD4680BD00BFD7
:10562800E802002080B584B000AF78600023FB73E7
:10563800022001F0EBFFFB7B5BB218461037BD463A
:1056480080BD00BF80B584B000AF01F07BFF00F0E3
:1056580033F800F00FF900F081F900F0E5F900F0F7
:1056680069FA00F0B5FA00F02BFB0A2001F0CEFF32
:105678001048542100F07CF8F8604FF0FF33BB600D
:105688004FF0FF337B60FB68B3F1FF3F05D04FF06D
:1056980090404FF4807103F00DFE4FF4FA7001F062
:1056A800B5FF0448FAF718FFB8600248FAF754FF44
:1056B8007860E8E72803002080B596B000AF0223A1
:1056C8003B6301233B6410237B640023FB6407F1E5
:1056D8003003184601F0BCFF0346002B03D02248D4
:1056E800A52100F0C1F80F23FB6100233B620023D2
:1056F8007B620023BB620023FB6207F11C03184690
:10570800002103F075F80346002B03D01648B32197
:1057180000F0AAF841F221037B600023FB6000231C
:105728003B610023BB613B1D184603F0F5FA0346B5
:10573800002B03D00C48BD2100F096F803F09CFA2A
:1057480002460A4BA3FB02239B09184603F09AFE64
:10575800042003F0A3FE4FF0FF300021002203F0E5
:1057680075FE5837BD4680BD78960008D34D621047
:1057780080B58AB000AF78600B46FB7038481021BE
:10578800012203F07FFD36482021002203F07AFD34
:10579800012001F03BFF32482021012203F072FD75
:1057A800012001F033FF2E482021002203F06AFD7A
:1057B8000A2001F02BFF78682A49FAF733FD7B6845
:1057C8001846FAF749FD0346B3F1FF3F02D14FF0FF
:1057D800FF3341E07A68FB7810461946FAF75CFD1A
:1057E8000346B3F1FF3F02D14FF0FF3334E07B684B
:1057F8001846FAF771FD0346B3F1FF3F02D14FF0A7
:10580800FF3329E04FF48043BB614FF49013FB61F1
:1058180048F2E8033B620E2387F824300A2387F80E
:1058280025307A6807F10C03104619460122FAF769
:1058380077FD0346B3F1FF3F02D14FF0FF330BE092
:105848007B681846FBF764FF0346B3F1FF3F02D1BC
:105858004FF0FF3300E0002318462837BD4680BDCF
:1058680000040048FC04002080B483B000AF7860D6
:105878003960FEE780B588B000AF354A344B5B69C4
:1058880043F480035361324B5B6903F48003BB60CC
:10589800BB682F4A2E4B5B6943F4003353612C4B92
:1058A8005B6903F400337B607B68294A284B5B699A
:1058B80043F480235361264B5B6903F480233B60E8
:1058C8003B684FF0904040F25511002203F0DAFC9B
:1058D80020483121002203F0D5FC40F25513FB602B
:1058E80001233B6100237B610023BB6107F10C03AB
:1058F8004FF09040194603F055FBAA23FB60164B66
:105908003B6100237B6107F10C034FF0904019467F
:1059180003F048FB3123FB6001233B6100237B61DB
:105928000023BB6107F10C030A48194603F03AFB50
:105938004A23FB6003233B6100237B6107F10C03CF
:105948000448194603F02EFB2037BD4680BD00BF32
:1059580000100240000400480000111080B500AF9C
:10596800174B184A1A60164B10225A60144B002223
:105978009A60134B0022DA60114B00221A61104B17
:1059880000225A610E4B00221A760D4B00225A76DD
:105998000B4B00229A760A4B0022DA76084B00223B
:1059A8001A77074B00225A77054800F067FA034632
:1059B800002B03D004484521FFF756FF80BD00BFE8
:1059C800D4040020006400408496000880B588B0A4
:1059D80000AF78607B681B68114A93421DD1114A59
:1059E800104BDB6943F00073D3610E4BDB6903F0A6
:1059F8000073BB60BB684FF4C053FB6002233B617C
:105A080000237B610323BB610923FB6107F10C03BE
:105A18004FF09040194603F0C5FA2037BD4680BDC7
:105A2800006400400010024080B500AF1E4B1F4AC2
:105A38001A601D4B40F20B225A601B4B00229A60E1
:105A4800194B0122DA60184B00221A61164B00220A
:105A58005A61154B00229A61134B0022DA61124BEE
:105A680000221A62104800F003FB0346002B03D003
:105A78000F484221FFF7F8FE0B48002100F058FFBD
:105A88000346002B03D00A484921FFF7EDFE0648DC
:105A9800002100F099FF0346002B03D00448502151
:105AA800FFF7E2FE80BD00BFFC0400200054004068
:105AB8009096000880B588B000AF78607B681B6856
:105AC800194A93422DD14FF40043FB6012233B61E6
